:020000041000EA
:1000000000B5324B212058609868022188439860DF
:10001000D860186158612E4B002199600221596106
:100020000121F02299502B49196001219960352056
:1000300000F044F80222904214D00621196600F024
:1000400034F8196E01211966002018661A6600F04E
:100050002CF8196E196E196E052000F02FF8012189
:100060000842F9D1002199601B49196000215960AB
:100070001A491B48016001219960EB211966A021F2
:10008000196600F012F800219960164914480160C1
:100090000121996001BC002800D000471248134993
:1000A000086003C880F30888084703B5996A0420EC
:1000B0000142FBD001200142F8D103BD02B5186610
:1000C0001866FFF7F2FF186E186E02BD00000240BE
:1000D000000000180000070000035F00212200005C
:1000E000F4000018222000A00001001008ED00E03C
:1000F00000000000000000000000000074B24E7A12
:1001000000200420E3010010C3010010C50100100D
:10011000C1010010C1010010C1010010C101001097
:10012000C1010010C1010010C1010010C701001081
:10013000C1010010C1010010C9010010CB01001065
:10014000CD010010CD010010CD010010CD01001037
:10015000CD010010CD010010CD010010CD01001027
:10016000CD010010CD010010CD010010CD01001017
:10017000CD010010CD010010CD010010CD01001007
:10018000CD010010CD010010CD010010CD010010F7
:10019000CD010010CD010010CD010010CD010010E7
:1001A000CD010010CD010010CD010010CD010010D7
:1001B000CD010010CD010010CD010010CD010010C7
:1001C00000BE00BE00BE00BE00BE00BEEFF3058054
:1001D000103800BE21482249086006C881F308880B
:1001E000104720480068002801D01C48F3E70DA400
:1001F0000ECC002902D000F012F8F9E71A491B4A88
:10020000002000E001C19142FCD1194988471949F9
:1002100088471949884700BEFDE701C901C29A42D3
:10022000FBD370477C020010C00000204024002057
:10023000FC2500104024002038270020F42800105E
:100240000000042000000420F42800100010042006
:1002500000100420000000007047000000000000B3
:1002600008ED00E0000000D038270020C02B00205F
:100270008D220020A501002019030020F8B5C046FA
:100280000448054B10B5834203D0044B002B00D02B
:10029000984710BD382700203827002000000000B4
:1002A00006480749091A8B10C90FC91810B549101B
:1002B00003D0044B002B00D0984710BD38270020F6
:1002C000382700200000000010B5074C2378002BD1
:1002D00009D1FFF7D5FF054B002B02D0044800E001
:1002E00000BF0123237010BD38270020000000004C
:1002F00040240020054B10B5002B03D004490548CD
:1003000000E000BFFFF7CCFF10BDC04600000000BA
:100310003C27002040240020B0B500AF054B064A22
:100320009A60054B1D68054B1B681C002B009D4601
:10033000A047C04600ED00E000300010043000107F
:1003400080B500AF00F016F803001A0001235340F7
:10035000DBB2002B01D0FFF7DFFFC046BD4680BDFA
:1003600080B582B000AF7860396000F02FF8FFF7F9
:10037000D3FF0000104B10B51B6818680F4B1B68AB
:100380001A68904201D1002010BD8021121A490143
:1003900000F010F90028F6D0094C0A49200000F0BE
:1003A00059F90028EFD008222000074902F0C0F8D0
:1003B00043425841C0B2E7E7A4260020A02600200F
:1003C00004FA03208828002068250020012370B546
:1003D000002201263C4C86B05B42A15C08254B40C4
:1003E0003A498C46190060463140494201405B0859
:1003F000013D4B40002DF5D1A321013289008A42F5
:10040000EBD1DB43A2589A425BD1A368002B58D0B2
:100410002D4B9B689D4209D32D4B186800F0C0F806
:1004200000216422080001F027FEFEE7E368012BAB
:1004300011D12000103000F037F9002841D0206D94
:1004400000F0AAF900283CD0666DA36D0193002E40
:1004500004D100F0B4F901355034D9E78023029675
:100460005B019E4200D90293029800F06FF903905D
:10047000002826D080220199520102F059F8002864
:1004800017D0EFF3108372B6F02212069446802143
:100490000593019B490163441800049302F0CCF8D2
:1004A000802203990498520102F002F9059B83F31C
:1004B0001088802252019446029BF61A019B6344E5
:1004C000C4E706B070BDC04604FA03202083B8ED2F
:1004D00088280020FEE7FEE70020704770B5094C31
:1004E000094A236810684B43C018EFF3108572B6B1
:1004F000F0231B062168C01802F09EF885F31088CF
:10050000002070BD54270020842800200A4810B520
:1005100000680A4C4843821820688018EFF3108462
:1005200072B6F022120680181900029A02F0C0F882
:1005300084F31088002010BD542700208428002058
:1005400070B50D00074918000C68074B6C4319681B
:10055000A4180919049A01F071FF044B00201D60D2
:1005600070BDC0465427002084280020AC270020FE
:10057000802370B5074D04002A00056006495B0121
:10058000064801F007F823682D185A1C65602260A0
:10059000187870BD04E7032058270020B0270020FA
:1005A00010B5034B01001800FFF798FF10BDC046BF
:1005B00030280020F8B51C4B1C4F18601C4B0D0058
:1005C0001960160000218022380001F031FF194C1B
:1005D00054220021200001F02BFF174BE5616360DE
:1005E000164BA360164BE360164B236180235B0020
:1005F0006361A361002D04D02900300001F05EFE8C
:10060000050010236362F033A362E3620E4B3800EF
:1006100063630E4B2100A3630D4B2562E36300F07F
:10062000E3FDC043C00FF8BD84280020B0270020A0
:10063000542700203028002085030020510300208B
:10064000210300201D03002004F9032004F80320E7
:1006500004F70320F0B5104B104E99B005000C00C4
:100660000093300001230E4A03A900F0EBFE00289E
:1006700002DA002019B0F0BDA427BF003B002A0019
:10068000300003A900F086FFB842F2D1054B0120EB
:100690001B682360EEE7C046B4260020B027002088
:1006A00071250020AC270020F0B50027204B87B033
:1006B000204E1F70204D0393204B02000093310009
:1006C0000123280000F0BEFEB8422BDB05AC02235C
:1006D00022003100280000F05DFF022822D1310005
:1006E000280001F05FF823781F2B02D163788B2B51
:1006F00002D0012007B0F0BD01F080F98022104C3B
:10070000104B20001049120227606760A36001F0BF
:1007100076F9200001F0EBFA002805D0310028001E
:1007200001F040F80020E5E70123039A1370E0E7A9
:10073000BC2B002058270020B0270020A82600202E
:1007400000520320B5030020046703200D4B70B551
:100750001B7805000C4C002B09D12B0022000B4903
:100760000B4800F017FF85420AD1200070BD0948F0
:100770002D1944618461C56101F050F90128F4D953
:100780000020F3E7BC2B002004570320582700204B
:10079000B02700200052032070B5802604007601A7
:1007A000002C01D1012070BD2500B44200D93500D4
:1007B0002800FFF7CBFF0028F5D0641BF0E7704757
:1007C00010B50A68046803000020944208D05B68F2
:1007D00049688B4204D08C4202D0D01A431E984103
:1007E00010BD02008005801501304142484180184B
:1007F0008005800D043070470300826A2833002A88
:1008000004D01A688A4202D10A681A60704713003D
:100810001268F4E7F0B58BB0109E0493129B099216
:10082000F218836E0C00DB6905909A4205D8C36EFE
:10083000002B23D0049A934220D8542040427CE0DD
:100840002368049A129F9A4222D16168A5684D19C3
:10085000AE421DD28E4216D3AD1BBD4200D93D0023
:10086000E368711A59182A00119801F0E7FD119BED
:1008700076195B191193129B5B1B1293129B002B31
:10088000DED1180059E0129B8F1B9F4200D91F0038
:10089000059B30009D6E6B691900039301F00EFDFE
:1008A0006B68099A0793129B0691934220D3002903
:1008B0001ED1129B039A93421AD31100380001F003
:1008C000FDFC7B1A28000691039300933200119BD4
:1008D0000499079DA84700282FD1039A119B94469D
:1008E00063441193069BB618129ADB1BD318C4E716
:1008F000049B2360069BF31A08936360099B5F1EA9
:10090000039BFF18BF191900380001F0D7FCEB69F1
:100910007F1A9F4200D91F00069BAA6A9B1BFF18E3
:10092000974200D91700A76000972800E368089A4B
:100930000499079DA847002882D00BB0F0BDF0B500
:10094000036886688DB08905040006938F0DBE424A
:1009500000D93E0000251368079353680893636825
:100960000993AE4206D8A3680020BB4221D0BB4207
:1009700040411DE0721B0592082A01D90823059306
:10098000059B069902930AAB0193089B08005B192B
:100990000093079BFFF73EFF00280AD1099B059AA9
:1009A00059190AA801F0C4FD002804D0C043C00FA3
:1009B00001300DB0F0BD059BED18D2E7F8B5C76961
:1009C0000D68083F0E000020BD4215D339002800F5
:1009D00001F074FC013801F06BFC0230800039003A
:1009E000281A01F06BFC040001F062FC80002D1A53
:1009F00020006743ED1B3560F8BD0000F7B50C0023
:100A00001500496B002B03D0012B22D18D1826D461
:100A1000436FAB4223D32B008D4218D0876E0091D9
:100A200038006946FFF7CAFF01A9060038000195A2
:100A3000FFF7C4FF2B00864214D1626C01998A42F1
:100A400010D8A06C121891420CD26563E1631800B3
:100A5000FEBD0D00022BDBD1E56A5519D8D5162352
:100A60005B42F4E7226B510307D5D10202D4012186
:100A70004942216402490A4022636563E7E7C046B0
:100A8000FFFFFBFF10B50C00826AFF21E06801F058
:100A9000CFFC01235B42236010BD0000F0B51500C0
:100AA000C26E9FB0139307000E002B68002A08D077
:100AB0009A4203D854235B4205936DE069688A42E9
:100AC000F8D90022042416A91692179201910092D7
:100AD0003900220038000294FFF79CFE031E0590A7
:100AE00001D0543358D10294002417AB01930094E1
:100AF0000422390038006B68FFF78CFE0590A04295
:100B000047D1179B169A9B1ADC17E41AE40FA3002F
:100B10005A59326001225440A20052590D94726019
:100B200016AA9B58B3600023F36002330F93033B74
:100B30000593B74B18AA11CB11C231000120042232
:100B40000831404200F038FE0023119310930993BE
:100B5000013B08930023059D149007930898FFF725
:100B600040FE079BBA6E1B1807930423029315AB34
:100B70000193079B3900009338003368D269FFF76F
:100B800049FE041E0BD02300543300D13DE10594EF
:100B900002E0059B5433BAD005981FB0F0BD042283
:100BA000149815A900F008FE159B089A1BBA5A4024
:100BB0001490069215921ED5089B1D0DF023DB00A4
:100BC0001D40944BED186B425D41EDB2F368069306
:100BD000002B00D028E13368726873600D9B32608F
:100BE0009B0016AA9B58B3600F9B012B00D161E7B5
:100BF00001230F939DE70698FFF7F3FDBB6EDB69BA
:100C00000C93079B0C9AC318934200D9FDE0F02186
:100C1000A0223368C9001293079BD20004330B93C0
:100C2000069B1B0D0B40934237D1042302931CAB50
:100C300001930B9B390000933800129B0C9AFFF72D
:100C4000E9FD041E9FD11C9A149B9A4200D0DCE05F
:100C5000159B069A1B0DDB075A40069214A9042225
:100C6000F86A00F0A9FDF8621598FFF7BAFD079B36
:100C7000C018069BF0603361099BB382189BB36177
:100C8000199BF361109BF37501235B4214932B00B6
:100C9000069A059508921D0060E7031F0E930894BD
:100CA0000E9B089A934229D8159BE024190D080041
:100CB000E4002040214248D1099A1B039B0D9A422F
:100CC00001D8013309931599249B139A4B401A407C
:100CD0000892139A1A420ED133681CAA1C930B9BDC
:100CE00027985360269B9847041E00DA4BE7159916
:100CF000002875D10D002B00059DC9E70E9B089AB1
:100D00009B1A0A93082B01D908230A930C9B089A73
:100D10000B999A1A0A9B380002931CAB0193089B0B
:100D20005B1800933900129BFFF774FD041E00D07E
:100D300029E70A9A14981CA900F03EFD0A9A089B1C
:100D40009446634414900893AAE78024E400A042E8
:100D500019D14AB209993048891889B209912F49A5
:100D6000284001438B4203D180231B061D43AAE781
:100D7000691CA8D01B0329039B0D890D8B42A2D8A7
:100D8000920255199FE7C0243368E400A04211D1B4
:100D90000122114010910821BA6E029118A9019107
:100DA0000B9938000091D2693900FFF733FD041E1A
:100DB00089D0E8E64A051A49520D8A4283D10821B2
:100DC000BA6E02911AA901910B9938000091D2696B
:100DD0003900FFF71FFD543017D00123119372E73C
:100DE0002B00104A4B4013420CD0022883D12A0317
:100DF0000B03920D9B0D9A4200D27CE780252D06B5
:100E00000D4378E701256D4275E70025DEE6C04613
:100E10009025002000FBFFFF00FC0F000000F04FBA
:100E2000FF05000000FCFF7F0023B3759D4232D018
:100E3000BD6E0698A96901F041FA0C1E2BD1119BD9
:100E4000002B28D0EB69099333680A931A9B089307
:100E500001235B420793089BA34216D9089B1D1BE5
:100E6000082D00D90825099B39001A1B1CAB0193DA
:100E7000069B38001B19009302950A9BFFF7CAFCDA
:100E8000002825D0030054334FD1079A1B9B9B1A8F
:100E90005A425341B375E023FC6BDB00220D1A422A
:100EA00028D0380031004030FFF78AFC002821D1DB
:100EB000059B24031B03A40D9B0DA34210D180238B
:100EC000059A1B061A430592259B002B15D121E09C
:100ED0002A0007981CA900F06FFC64190790BAE774
:100EE000059A0132F0D0A34204D9114A059B9446D9
:100EF00063440593259B002B08D0059BB28A1B03F6
:100F00009B0D934200D91300259A1380059B002B5B
:100F100000DB41E60021059BB28A1B039B0D059176
:100F20009A4200D838E60223C5E5059034E6C0466B
:100F300000FCFFFFF0B58BB0C56B0793CB68069242
:100F400005932A0DE02314000E69DB000F000490C6
:100F500009961C401A4219D04030FFF731FC002896
:100F600000D078E0069B1C03A40D0FD0079B2D0337
:100F70001B03AD0D9B0D9D4204D102214942080087
:100F80000BB0F0BD9D42AD41AD0AAC023000FFF7A1
:100F900028FC059A031D9342EFD8059B04991B1A60
:100FA00005930423029309AB0193059B080000936A
:100FB00004223B68FFF72EFC011EE0D1099B069A34
:100FC0001BBA73405B005B0812030993920D1BD0A0
:100FD000E025320D80211000ED00C9002840884234
:100FE00012D10799081B01038C4665463103AD0DEC
:100FF000890D8D4208D31A4908401A4901438E428F
:10100000BBD052B292021419079A0699121B724071
:10101000114222D1B505AB150133AED0129BAD0DF7
:101020009D4200D91D00119B059A0193109B0499C4
:1010300004339B180295009308002A003B68FFF7D1
:10104000E9FB011E9BD1129B5A1B119B581901F001
:10105000EFF9311993E7002498E71E0096E7C046A0
:1010600000FC0F00000010401FB59C05A40D029469
:10107000069C019400240094FFF75CFF04B010BDAF
:10108000F0B593B00A9313680E0006930A9B08907C
:101090000B92002B02D04D4B0A9A1380089B4C4CAC
:1010A0001B6AB361089B5B6AF3614A4F069839007B
:1010B00001F086FA069B39001D18280001F05CFA41
:1010C0000590012806D12B782E2B0DD1059BEB180E
:1010D0000693EAE7059B022B06D11A0028003E4939
:1010E00001F026FA0028F1D0059BEB181F000693AB
:1010F00001230793374B0C93374B0D9338000C9912
:1011000001F05EFA3F1838000C9901F035FA0990A9
:10111000002815D002280DD1022238000D9901F0C7
:1011200007FA002806D1079B013B0793002B04D147
:10113000BB1CCDE7079B01330793099BFF18DDE735
:101140002B78002B3CD00B9B1D6063005B0D022BAA
:1011500039D11E4B2403A40D9C420CD032001F4BEE
:10116000A40218322343009231001D4A0898FFF769
:101170007BFF041E24DB2F21280001F077F9434276
:1011800058410A9B089A404218400FAB0F920393B4
:10119000059A144B119202930092F02332000190B1
:1011A00031000898DB0518321095FFF777FC041E14
:1011B00006DB002800D078E7F37D002BDBD1023C72
:1011C000200013B0F0BD14246442F9E7FF030000CF
:1011D00000FC2F0080250020822500200800002030
:1011E00000FC0F7083070020F0B504000B6A99B073
:1011F000E3664B6B0800A166E360002B03D08B6BAA
:10120000002B02D1E3610C20B2E0E3612100FFF783
:1012100039FC2100A06E1031FFF734FCA16ECB6BBE
:10122000002B01D16366EEE763660B6C002B4FD099
:1012300023674B6C002B00D1784B6367886C0028C8
:1012400000D17748A0670B6DE3675A1C42D1002399
:10125000E3670127002520007F4229000C22A562B8
:10126000E562276267623C3001F0E2F82000290065
:101270000C22303001F0DCF8200029000C2248302C
:1012800001F0D6F829001C2210A801F0D1F80123A2
:101290001D00179305970493169B5A1C03D0179AA9
:1012A000511C00D0B1E0226BD30F9B1823632200A6
:1012B000230030323C3323CA23C3E56EE06A2900A1
:1012C00000F0FCFF00206165A065E06525668FE009
:1012D000FF23ADE7002BBCD1CA6C8B6A002A07D074
:1012E000D208834200D903009342B1D91300AFE77B
:1012F000CA69F5E79F4203D10599914200D18BE07D
:1013000004998D4204D169001700002504910593CA
:1013100007AB0393434B444A0293002308920822ED
:101320000193424B10AE0992009331002000404BD4
:1013300016AA01350794FFF7B1FB002858DB4AD005
:1013400080058015013046D0109B31002362119B2F
:10135000200063620AAB0093354A364BFFF784FEE8
:10136000002845DB0A9B99B21B0C022B02D01620E9
:1013700040423DE00129FAD8236B2F4A1340012255
:101380004A405202134323630D9B002B03D0226F6C
:101390009342ECD823670E9B0AAA002B03D0616FFF
:1013A0008B42E4D863675369002B08D0A16F8B424E
:1013B000DDD8E16FA367994200D91900E167A36EF8
:1013C0009168186A002801D08842D0D15268DB6940
:1013D000E1669A42CBD10AAE2000184B184A00961B
:1013E00010A9FFF741FE002804DA831C00D153E75F
:1013F00019B0F0BD2300210030333C311A6801CE12
:10140000424004C38B42F9D146E70599994200D086
:1014100070E7974200D073E75420A9E7FFFFFF7FF2
:10142000FE03000083070020852500200800F00F40
:1014300000FCFF7F18001020FFFDFFFF0C00F07F75
:101440000000F07FF0B587B00B6300234B63CB63E4
:10145000CB640B00059208330C9A02930A650B1DAE
:101460000C0005AA02990600FFF70AFE051E08DA1D
:10147000831C21D1414BA2889A4202D102256D42A0
:101480001AE00123A371B36A2360B462AB1CF5D0E8
:101490002B0D03931525012BF1D1A288384B920215
:1014A00013432200283200923000364A0299FFF797
:1014B000DBFD0027051E09DA21003000FFF79CF94B
:1014C00016E0226B03990A4215D10137236D9A6801
:1014D0009742F6D31B68E364002B27D02100B06E3F
:1014E0004031FFF7CFFA284A2B0D934220D0002538
:1014F000280007B0F0BD0C21C02079435A68A388AA
:10150000521891689B020B431178800052680918A9
:1015100009050B43009230001C4A0299FFF7A4FD15
:101520000028D2DA831CD0D00500C5E70C25A6E739
:101530008023216B5B030B4323630023022263643C
:10154000B36EAD059B6A5242AD0DA262E5622264A4
:10155000A364CCD0A2880E4992028B4200D90B0022
:101560001A4380239B051343E26C300000920299DA
:10157000044AFFF779FD051EB9DA9DE7FF03000075
:101580000800002000FC0F700102000000FCFF7F3B
:10159000FE030000F0B597B00C000A924A6BC96ACE
:1015A000070000208A4200D3E2E08A1A08929A4299
:1015B00000D90893089B0693069B002B01D108983D
:1015C000D6E08022236BD202134204D0BA6EE66BBF
:1015D000D269964213D180214903626B0B4277D1C5
:1015E000A36AE66A13931492002E39D101235B4259
:1015F000A363E6638022236BD20213432363BA6E94
:101600000699D2690992921B05928A4200D90591E6
:1016100080225203134200D1ACE023000833109320
:10162000A3885E4A9B021A43059B1192099A9B1953
:101630009A4200D2AEE00A9B0B93059B0793079B4F
:10164000002B4BD1059A636B94469B186363E36B45
:101650009B18E3630A9B63440A93069B9B1AAAE7C1
:101660002300BD6E4033013E15A92800099315964D
:10167000FFF7A4F914A906002800FFF79FF90590C9
:10168000139B0793059BB34203D3079B149EA3634D
:10169000AFE7059BF01A00F0FFFD0500300000F0F9
:1016A00001FE1F235D1B854200D905000423029320
:1016B00013AB0193AB00009304223800079B0999F8
:1016C000FFF7A8F8002853D10123AB40F61AD7E75B
:1016D00002235B421600A363E2638BE7E36C0F9384
:1016E000236C023319D1616CA56C4D19AE4214D232
:1016F0008E4212D3079BAD1B9D4200D91D000F9B4C
:10170000711A59182A000B9800F098FE0B9B761955
:101710005B190B93079B5B1B90E702235B422364DF
:10172000BB6E30000D935B6919000C9300F0C6FD91
:10173000731A0C9A0E936364099B11009D18013D66
:10174000AD19280000F0BAFD0D9B6D1A9B6A9D42F1
:1017500000D91D000F9BA56401930E9B38000093D8
:101760000F4A119B10990295FFF7E4FB0028B5DAA8
:1017700017B0F0BD2100059B009602930A9B38002C
:101780000193A36B099A4031FFF744F8002800D178
:1017900058E7EDE754204042EAE7C0460000102039
:1017A00000FCF7FF002310B51A00FFF727F9002807
:1017B00000DD002010BD000070B50F250A4C8A180E
:1017C000914200D170BD0B78060958402840800036
:1017D00000591B09464073402B409B001B593009A0
:1017E00058400131ECE7C04698250020F0B50D00C7
:1017F00016000021202289B0040000F019FE2B0001
:10180000701998420ED1002369461A002380E05ACD
:101810005A5202331218202BF9D10022B24208D1B9
:1018200009B0F0BD1A7801335200A15A0131A1521A
:10183000E7E7A85C002806D040000B5A5F1C103375
:101840005B000F521A530132E8E70368426810B593
:10185000934203D25A1C0260187810BD8368841D1D
:10186000002B07D0E27F002A04D19847002801DB33
:10187000C0B2F2E701230020E377EEE7036910B579
:101880005A1E04000261002B04D1FFF7DEFF07237C
:10189000E0602361E0684308E3600123184010BD65
:1018A000F7B5002615000190B14204D001242700AD
:1018B0008F40BC4201D3A819FEBD0198FFF7DEFF9F
:1018C000604364003618F4E7F7B500250B000E00FE
:1018D0002C00203301908F1C00930198FFF7CEFF5E
:1018E000009B6D0028189F420BD03D8802372B19B2
:1018F000451B04D5241810346400A05BFEBD1C00F9
:10190000EBE703204042F9E7F0B5D5B0039202229D
:101910000091FF3205210500FFF7C2FF01220521DA
:1019200006002800FFF7BCFF0422019011002800E8
:10193000FFF7B6FF13220700002104A800F078FD8E
:101940000024BC4218D100241322009804A9FFF7F8
:101950004DFF019BF3180293029B9C4217D3320068
:10196000009804A9FFF742FF04AB0398019AF1180D
:10197000FFF73CFF002012E0002203212800FFF7C0
:101980008FFF1D4B04AA1B5D0134D054D9E72800FA
:101990000099FFF799FF002803DA0320404255B071
:1019A000F0BD112820D0122822D0102818D1002CE8
:1019B000F3D02300413304AAFF339B1802210322F2
:1019C000423BFF3B1F782800FFF76AFF029B20186D
:1019D0009842E2D804ABA042BED0E7540134FAE703
:1019E00004AB18550134B7E7032211000027EAE7DA
:1019F0000B220721FAE7C046D825002070470023B4
:101A000010B5841DE377012464420361C3628462DC
:101A1000C26381630364036310BD0000F8B5040072
:101A2000A36A013375D12000A56AFFF727FF0022C2
:101A3000E06202212000FFF733FFA062012800D0FE
:101A400081E0012D6BD0210000230831A21DD38736
:101A500002318B87CB870231CB870231CB87403174
:101A60000B804B802300182152331980803159801C
:101A70002839998021008023183064315B00FF30C1
:101A80000B8001339BB202318342F9D12000002345
:101A90009430590043520133902BFAD1D7218C2036
:101AA0004900400050521A200231FF30505202319A
:101AB000013050521C200231FF30505202310130AF
:101AC00050521E200231FF3050520231013050522C
:101AD00020200231FF3050522200C532FF32BC3983
:101AE000138001339BB202328B42F9D1A922002329
:101AF00020219200A352A218518153809380D38059
:101B00001381B1229200A1185A008B520133202B6D
:101B1000FAD1A66A002E25D0013E012E1FD8236BD4
:101B2000002B00D083E0210020004431FFF7CCFEE1
:101B3000A31DDB7F002B12D1FF284DDCA369C0B2AF
:101B40005A1CA26133E00228E3D1A92321009B00A3
:101B50002000E2184431FFF7D7FE0028D9D0032037
:101B600040429FE0206B002817D12000FFF76DFE58
:101B700005002000FFF769FE000245192000FFF76D
:101B800064FE07002000FFF760FE484B0002C0190A
:101B900043409D42E3D1681C266101382063002840
:101BA0007BD02000FFF751FEA3695A1CA261187078
:101BB000A26B002A09D0236C591C2164D054226CDA
:101BC000E36B9A4201D100232364A269E3699A423C
:101BD00000D225E7002065E080235B0098425CD0BE
:101BE0000238FF381C28BADC314B4200D25A314B44
:101BF000195C2000FFF754FEA9239B002063E11825
:101C00002000FFF761FE1D28A9DC2B4B4200D25AB1
:101C10002A4B195C2000FFF743FEA36B002B2DD04D
:101C2000E26B90423FD8236C1B1A24D46363A16BF0
:101C3000A369626B00292AD0581CA0618A5C1A70C3
:101C4000A36B002B0BD0226C616B501C2064595C81
:101C50009954226CE36B9A4201D100232364636B95
:101C6000E26B01336363934201D100236363236B0F
:101C7000013B2363A9E7D2186263D8E7A3696269CD
:101C80009B1A984200D96AE740426063CFE79A5CAA
:101C90001A70A3690133A361E9E7E36A002B00D15D
:101CA000C1E60120F8BD05205AE7C046FFFF00004D
:101CB0004626002082260020EC2500202826002031
:101CC00070B505000C00002C00D170BD2800FFF796
:101CD000BCFD013CF7E770B50400FFF7B6FD050059
:101CE0002000FFF7B2FD0002284380B270BD70B53E
:101CF0000400FFF7AAFD1F2802D00320404270BD58
:101D00002000FFF7A2FD8B28F7D12000FFF79DFDF3
:101D10000828F2D12000FFF798FD05001F28ECD815
:101D200006212000FFF7CCFF6B0706D52000FFF748
:101D3000D2FF01002000FFF7C3FF2B0704D52000CE
:101D4000FFF783FD0028FAD1EB0604D52000FFF74A
:101D50007CFD0028FAD10226354202D02000FFF790
:101D6000BAFF631DDE7701235B4200202362C6E7D2
:101D7000054B064A1360064A136053609360D360B4
:101D800013615361936170478080808000E400E0BC
:101D900004E400E0044A1078431CDBB2172B00D99E
:101DA000102313707047C046C02600200021044B4A
:101DB000044ABFF35F8F02C39342FAD17047C04613
:101DC000000100D0800100D0024BC91889000160D9
:101DD0007047C0464000003410B50400FFF7DAFF3A
:101DE00001002000FFF7F0FFFF232371BFF35F8F97
:101DF00010BD10B50400FFF7CDFF01002000FFF774
:101E0000E3FFFF23A380BFF35F8F10BD10B5084829
:101E1000084B984200D310BD040003680834002B1F
:101E200003D0FFF7E6FF2000F2E7FFF7D5FFFAE760
:101E3000F0260020F8260020142310B50100188891
:101E400004331B88984710BD162310B5010018886D
:101E500002331B88984710BDF8B50E000400002718
:101E60000125B74201D12800F8BD2068FFF7E4FF43
:101E700001C4431E984101370540F2E7F7B50C2431
:101E800044430193254B0092E4186368089A0500C7
:101E90000E00934200D26260C0232F1F9B01FFB24D
:101EA000E318012F29D8012E27D103221A60A36835
:101EB0003342FCD0009B22685B015340E022134078
:101EC00080225201A2181360012F09D80321236830
:101ED00073400B4013600123B340A2681342FCD04F
:101EE000802380229B01E31812011A60089B019A4B
:101EF00063600B4BAD00EA50F7BD802212011A60FF
:101F0000074BAA00D1580029D4D0586900F0D6F95F
:101F1000431C032058430338FDD2CBE70080004028
:101F20008C290020F7B505000E001800089917004D
:101F300000F0C4F9089A0300140231003A002800A6
:101F40000094FFF79BFFF7BD13B580246400009455
:101F5000FFF794FF13BD0000014B8000C05870478D
:101F60008C290020F8B504001F4817001E000D0042
:101F700000F0A4F90100380000F0A0F9069A33043B
:101F8000120313432268002A0FDA3F2122680A4015
:101F9000AA420AD1A2681205120D824205D1EE2191
:101FA000E268C9020A409A421CD0104A104EA11899
:101FB0004A42514101220C318A400E490A600E49C1
:101FC0000A60170031688F43391EFAD10B4A21315C
:101FD000A2182560A060116021680029FCDAE36086
:101FE00008231360F8BDC046001BB7000040FDBFCA
:101FF00008C0004000E0004000F000400430000055
:10200000024B1A68024B5A607047C046B429002040
:102010000080054003008020114AC00510B5114C16
:10202000106011480460E020104CC004002906D064
:102030002060002B05D180231B06236010BD10609B
:10204000F7E7FA20C00058438023094A5B0498420E
:1020500000D308481060FFF7D3FF8023DB05ECE7CF
:1020600000B00540FCFF01000820014000A0054031
:10207000B4290020FFFFFF0070B50400100080228B
:102080000A4BD2051A600A4B002C0CD00125094AD4
:102090002C43DA61084A62401A6259629C6200214C
:1020A000FFF7B8FF70BDDC61F9E7C04600B005403E
:1020B00000800540D3C007B02D3FF84F8023024A6F
:1020C0009B000B43D362704700800540AA22064B59
:1020D00012011A602132FF32DA600449044A1160A9
:1020E0005A68002AFCDA70470040024000B0FA004B
:1020F000006002407047000010B5044C044B9C4245
:1021000000D310BD08CC9847F8E7C046F826002059
:1021100034270020054B064A06491A60064B074A39
:10212000136018000A689043FBD1704700E000403C
:10213000BFCDFBFE08C00040FE7F3C0000F0004029
:10214000044BDB6C002B03D18022034BD2021A60BC
:102150007047C046000011504C201150044A054BF6
:102160001A60054A1368DB018033FBD17047C04613
:10217000FFFFFF0100F0004008C000404022034B79
:102180009A675A671A67DA667047C04600F00140DE
:1021900010B5FFF70BFE10BD70B5044D044CA968D7
:1021A000C022200000F04AF9AC6070BD00ED00E0F4
:1021B00000000020002373B5284DAB67FFF786FFB2
:1021C0000122274B1A606B6C012BFCD10322254B9B
:1021D0001A60AC6B012CFCD102260525210000966B
:1021E0000623214A2148FFF7BDFE2B002100009560
:1021F0001F4A2048FFF7B6FE3100002204201E4B84
:10220000FFF7A2FE2800210000221C4BFFF79CFED6
:102210000022072011001A4BFFF796FE002208202B
:102220001100174BFFF790FE80230022DB00110006
:1022300000930920124BFFF775FE00220F4B11008F
:102240000620FFF781FE0420FFF786FE0D4900F00F
:1022500035F801000020FFF731FF73BD008000401A
:102260003CB0004030B00040002F68590080024070
:10227000008C864700C00240001BB700405973071E
:10228000006CDC0240420F0001480421014B18475A
:10229000D02600209D1C0020014B5B6818470000E1
:1022A000D0260020014B9B6818470000D026002054
:1022B000014B1B6818470000D0260020114A936F7D
:1022C0009B0813D210665166002905D0FFE7FFE78F
:1022D000FFE7516F106F704704B5002801D0002050
:1022E000C04300F0C1F8002104BDC046F0B5146E33
:1022F000556E576F166FFFF7E5FF14665566576703
:102300001667F0BD000000D0132370B51C78114D86
:10231000012C0ED1002310499A000133A950202B23
:10232000FAD10D4BAB640D48FFF786FD0C4B1860DE
:1023300070BD012CF5DD0B48FFF786FD06000A484D
:10234000FFF782FD80223100280000F077F8022C90
:10235000E9D1E6E7B8290020B12100204C33000084
:10236000B82A0020534400005346000007B56046D9
:1023700001880A0A0230DF2AFAD1C9B2820804D3DE
:10238000028840880004104300E00068014A505071
:10239000039007BDB8290020132310B510481C78FE
:1023A000FFF752FD0100012C13D10E4C54222000E6
:1023B00000F044F815230C4A990001336250202B99
:1023C000FAD12262E2610948FFF736FD084B186036
:1023D00010BD012CF7DD8022024800F02FF8F2E753
:1023E00053460000BC2A0020392200204C33000054
:1023F000B82A002007B5604601880A0A0230DF2AA1
:10240000FAD1C9B2820804D302884088000410437C
:1024100000E00068014A5050039007BDBC2A00202C
:1024200001480421014B1847E02600209D1C002094
:10243000014B1B6818470000E0260020014B5B6839
:1024400018470000E026002010B5FFF755FE044CA9
:10245000044B9C4200D310BD08CC9847F8E7C04617
:1024600034270020382700207047C0460323CAB213
:10247000F0B50340002A35D00324002B2DD1FF23D3
:102480000B401D02ED182B04ED182C000168264EA0
:102490004C408B198B43A119A143244E0B4333426B
:1024A00011D14168204F0C00CB196C408B43E119CE
:1024B000A1430B4304303342F3D00378002B05D003
:1024C0009A4204D001300378002BF9D10020F0BDEE
:1024D0009342FCD001302042D1D00378002BF7D1B9
:1024E0000020F4E7002B08D0032202E00130104264
:1024F00003D00378002BF9D1E9E702680A4B0B49B6
:10250000D31893430B4206D14268074B0430D318CB
:1025100093430B42F8D00378002BD8D04378013096
:10252000002BFBD1D3E7C046FFFEFEFE80808080FB
:1025300030B5032A0CD90B0003439B0719D104685B
:102540000B689C4215D1043A04300431032AF6D8B2
:10255000551E002A0BD0002303E05A1C9D4206D0D2
:102560001300C25CCC5CA242F7D0101B00E000203C
:1025700030BD551EEFE7C04670B50478002C1CD066
:102580000E780500002E0AD00A00330003E05378CD
:102590000132002B0CD09C42F9D1281A70BD6C7806
:1025A0000135002CF9D06C780135002CF7D1F4E717
:1025B0006C780135002CE7D1EFE70020EEE7C0464C
:1025C00070B504780600002C14D00D780020002D82
:1025D00000D170BD30000A002B0003E053780132B7
:1025E000002B05D09C42F9D144780130002CF2D167
:1025F000801BEEE70020ECE7F8B5C046084A10B5AE
:102600001378002B0AD18023064807495B051C6814
:10261000C45004338B42FAD10123137010BDC0465D
:10262000BD2B00208C2800100001001010B5014BBC
:10263000984710BD8D2800208023F0B54218070070
:102640000C0085B05B049A4201D9FDF744FF1426C3
:10265000182530882B88124998472B8803901149F8
:10266000308898472B8802900F49308898472B88EC
:102670000E490190308898470500FFF7BFFF039B84
:102680009847029B984780222100D82338005202A5
:10269000019CA047A847FFF7C9FF05B0F0BDC046A1
:1026A00049460000455800005245000046430000DE
:1026B0008023F0B5170085B08218040003915B04F5
:1026C0009A4201D9FDF707FF1426182530882B8878
:1026D000104998472B8802900F49308898472B88DB
:1026E00001900E49308898472B880D49009030881A
:1026F00098470500FFF782FF029B9847019B984788
:102700003A0020000399009B9847A847FFF78EFFE7
:1027100005B0F0BD49460000455800005250000089
:10272000464300005069636F204F5441006F74614D
:10273000636F6D6D616E642E62696E002F002E2EC8
:10274000006C6974746C656673000000FFFFFFFF26
:10275000FFFFFFFF000000006410B71DC8206E3BA4
:10276000AC30D9269041DC76F4516B6B5861B24D98
:102770003C7105502083B8ED44930FF0E8A3D6D602
:102780008CB361CBB0C2649BD4D2D38678E20AA06A
:102790001CF2BDBD10111200080709060A050B0442
:1027A0000C030D020E010F000100020003000400E3
:1027B0000500070009000D0011001900210031007B
:1027C000410061008100C10001018101010201039A
:1027D000010401060108010C01100118012001305B
:1027E0000140016000000000010102020303040433
:1027F000050506060707080809090A0A0B0B0C0C51
:102800000D0D030004000500060007000800090084
:102810000A000B000D000F001100130017001B0031
:102820001F0023002B0033003B00430053006300D4
:1028300073008300A300C300E30002010000000056
:102840000000000000000101010102020202030376
:10285000030304040404050505050000F42F00101B
:10286000F02F0010005003200000000000000000C6
:1028700000510320000000000000000010000000D4
:1028800000000000000000000000000050330000C5
:102890004C33000054330000523300004D5300000D
:1028A0004D4300005334000043340000000000009A
:1028B000000000006522002085010020591F002033
:1028C000851F0020CD2000204D210020DD2100208B
:1028D000F91F0020A11F0020C11F0020D51F0020CC
:1028E000511C0020DD1F0020391F0020B51B0020D7
:0428F000390100208A
:1028F40000000000000000000000000000000000D4
:1029040000000000000000000000000000000000C3
:1029140000000000000000000000000000000000B3
:1029240000000000000000000000000000000000A3
:102FE40000000000000000000000000000F0F710E6
:0C2FF40000F0FF1000F0FF1000F0F700EC
:1030000000200420E3300010C3300010C530001051
:10301000C1300010C1300010C1300010C1300010AC
:10302000C1300010C1300010C1300010C730001096
:10303000C1300010C1300010C9300010CB3000107A
:10304000CD300010CD300010CD300010CD3000104C
:10305000CD300010CD300010CD300010CD3000103C
:10306000CD300010CD300010CD300010CD3000102C
:10307000CD300010CD300010CD300010CD3000101C
:10308000CD300010CD300010CD300010CD3000100C
:10309000CD300010CD300010CD300010CD300010FC
:1030A000CD300010CD300010CD300010CD300010EC
:1030B000CD300010CD300010CD300010CD300010DC
:1030C00000BE00BE00BE00BE00BE00BEEFF3058025
:1030D000103800BE1E481F49086006C881F30888E2
:1030E00010471D480068002801D01948F3E70DA4D7
:1030F0000ECC002902D000F012F8F9E71749184A5F
:10310000002000E001C19142FCD1164988471649D0
:1031100088471649884700BEFDE701C901C29A42A7
:10312000FBD37047C0540310C00000206866002025
:1031300068BA0310000004200000042068BA0310DD
:103140000010042000100420000000007047000060
:103150000000000008ED00E0000000D068660020DC
:103160006CC3012071EE0210CD07021039BF0210AE
:10317000F8B5C0460448054B10B5834203D0044B54
:10318000002B00D0984710BD6866002068660020BC
:103190000000000006480749091A8B10C90FC9181A
:1031A00010B5491003D0044B002B00D0984710BD38
:1031B00068660020686600200000000010B5074C1B
:1031C0002378002B09D1FFF7D5FF054B002B02D048
:1031D000044800E000BF0123237010BD388900209F
:1031E00000000000D8F00210054B10B5002B03D0F2
:1031F0000449054800E000BFFFF7CCFF10BDC04602
:10320000000000003C890020D8F002100020704728
:10321000704700207047002070477047034B10B57F
:10322000186803681B68984710BDC0466C090020E9
:10323000034B10B5186803685B68984710BDC0461B
:103240006C090020034B10B518680368DB689847C9
:1032500010BDC0466C09002000200B5C002B02D082
:1032600001308242F9D270470023C2684361137073
:103270007047000070B51F4C050020680E00002844
:1032800036D01D49002E03D01CF0DAFE1B49206801
:103290001CF0BAFEEB69002B07D0202120681CF03F
:1032A000C2FEE96920681CF0BAFE154920681CF0CE
:1032B000ABFE0A22296920681CF05BFF11492068D7
:1032C0001CF0A2FE0A22696920681CF052FF002E41
:1032D0000BD00D4920681CF097FEE96820681CF0AF
:1032E0009EFE272120681CF09EFE20681CF0A8FE90
:1032F00070BDC046B0900020E4F00210CD05031070
:10330000D8F00210DEF0021094F6021070B5057EBF
:103310000400002D1FD00269C3689B18002A1BD02F
:103320001A78002A18D001210C4A41761170002227
:103330001A70E06827F0D8FE6061002D0BD0084BB2
:103340001868002807D007491CF05EFE064B2000D5
:103350001978FFF78FFF70BD1500E8E76383012040
:10336000B0900020EAF002106809002010B50400B7
:10337000FFF7CCFF606910BD70B50400FFF7C6FF12
:1033800020006569FFF7C2FF2069401B4342584196
:10339000C0B270BD70B50400FFF7B8FF200025690A
:1033A000FFF7B4FF6069281A70BD000008B4024B33
:1033B0009C46043808BC60479533001070B50D007A
:1033C0000400FFF7A3FF2800E1681CF028FE70BD91
:1033D00010B50400FFF79AFF0123E068237610BDC3
:1033E00010B50400FFF792FFE4682078002800D1B0
:1033F00010BD22F025FC20700134F6E7F8B5050079
:10340000FFF784FF6C69002C1AD0EF683E0030781B
:1034100025F0A4F8002814D1013C3C19207825F0AF
:103420009DF800280FD10134A21B6A61BE4203D966
:103430003100380028F090FD0021EA686B69D15412
:10344000F8BD0136E3E7A642EDD8013CE6E7F7B563
:1034500005000E00FFF75AFF6B69002B01D1002019
:10346000FEBD0A22E86801A927F010FE019CEB6866
:103470000700A342F3D02078002802D13760013042
:10348000EEE725F06BF801340028E8D00194F2E76C
:1034900070B5094D04002868002808D020211CF0D0
:1034A000C2FDE1692868002902D01CF0B8FD70BD9A
:1034B00002491CF0A9FDFAE7B090002097F702102E
:1034C000F0B585B001930AAB040001CB15001A7862
:1034D0000CAB1B78AC4F039300232760AB4FE0612C
:1034E000601DA360676063762362A36223616361EA
:1034F0002276C3779D4200D13DE10198431E984159
:10350000019BEB1A5F427B4103400293002A24D0C7
:10351000039B002B21D104291DD100229C4B9D4DE2
:103520001A70E36028689C4B013221611A70627640
:10353000002800D1A9E099491CF066FD2000FFF7A2
:10354000A7FF974928681CF05FFD964B200019786B
:10355000FFF790FE99E0002D54D04B1EE560033339
:103560004AD9002A34D0039B002B31D0002913D133
:103570000122874B874D1970E3602868864B62767D
:103580001A70002800D180E087491CF03DFD200022
:10359000FFF77EFF8549D5E7280027F0A5FD060047
:1035A000029B2661002B00D12B70019B002B3DD18B
:1035B0000122784D784B28681A706276002864D012
:1035C0007B491CF021FD2000FFF762FF7949B9E734
:1035D00000226F4B6F4D1A70E36028686E4B01320A
:1035E0001A706276002850D073491CF00DFD20003F
:1035F000FFF74EFF7149A5E7714B994200D91900B9
:103600004E1ECDE70022624B624D1A70E3602868BF
:10361000614B01321A706276002836D064491CF082
:10362000F3FC2000FFF734FF66498BE7701CFF3086
:103630001DF08CF907001DF0B1F9002F28D10122EF
:10364000554B62761A702F70524D2868002818D09A
:1036500057491CF0D9FC2000FFF71AFF5A49286887
:103660001CF0D2FC0A22216928681CF082FD57490F
:1036700028681CF0C9FC4B4B200019782761FFF724
:10368000F9FD434BE36000232361200005B0F0BD4A
:10369000320020000199FFF7DFFD029B0700864200
:1036A0005BD2002B02D000236661AB550122394D5D
:1036B000394B28681A7062760028E6D0394B1E0014
:1036C000029B002B2AD13A491CF09EFC2000FFF7F8
:1036D000DFFE3F4928681CF097FC0A223900286861
:1036E0001CF047FD3B4928681CF08EFC3378002B0A
:1036F00012D028681CF0A4FC374928681CF084FC10
:10370000364928681CF080FC019928681CF087FC69
:10371000272128681CF087FC330017E7039B3049FA
:10372000002B00D124491CF06FFC2000FFF7B0FEF5
:103730002C4928681CF068FC0A22390028681CF013
:1037400018FD3378002BE7D028681CF079FC22495B
:1037500028681CF059FC2449D3E7002B04D102004F
:103760000199280028F0F8FB0022E3682169DA5566
:1037700067615A5489E7002A00D143E7039B002B75
:1037800000D03FE70293C6E60C290310242903105A
:1037900064830120B09000206383012027F1021090
:1037A00054F102106809002068F2021096F202102B
:1037B0000EF3021055F30210C6F20210ECF20210E2
:1037C000FEFFFF7F21F3021089F302109EF3021027
:1037D000DDF3021075F30210CD050310F7F30210AC
:1037E00010F402103CF402106BF4021070B50400E7
:1037F0000E00FFF78BFD6369B3422DD80122184DEF
:10380000184B28681A706276002823D016491CF0DD
:10381000FBFB2000FFF73CFE144928681CF0F4FB7A
:103820000A22310028681CF0A4FC114928681CF009
:10383000EBFB2000FFF72CFE0E4928681CF0E4FB90
:1038400061690A2228681CF094FC0B4B200019784F
:10385000FFF710FD002070BDE368985DFBE7C046F0
:10386000B09000206383012087F402108FF40210CF
:10387000A0F40210A5F402106809002070B504003D
:103880000E00FFF743FD6369B3422DD80122184DA6
:10389000184B28681A706276002823D016491CF04D
:1038A000B3FB2000FFF7F4FD144928681CF0ACFBC3
:1038B0000A22310028681CF05CFC114928681CF0C1
:1038C000A3FB2000FFF7E4FD0E4928681CF09CFBD9
:1038D00061690A2228681CF04CFC0B4B2000197807
:1038E000FFF7C8FC002070BDE368985DFBE7C046A9
:1038F000B09000206383012087F4021013F50210BA
:10390000A0F40210A5F4021068090020F0B585B0FB
:103910001E002C4C0AAB1B780190206802930BAB65
:1039200017001D780391002822D027491CF06CFB5A
:103930000198FFF7ADFD254920681CF065FB206864
:10394000002F17D1002E26D1029B002B2FD12068EB
:103950001CF076FB1E4920681CF056FB03990A22D6
:1039600020681CF006FC1B4B01981978FFF782FCBD
:1039700005B0F0BD002D02D122211CF054FB114EE8
:10398000390030681CF04BFB002DE0D1222130685B
:103990001CF049FBDBE710491CF036FB31002068C6
:1039A0001CF032FB0D4920681CF039FBCFE72721C2
:1039B0001CF039FB029920681CF035FB2721206898
:1039C000E6E7C046B090002019F80210DB070310AC
:1039D000E3F30210680900201DF5021021F5021022
:1039E00070B50D4C060020680D00002813D00B495F
:1039F0001CF00AFB3000FFF74BFD2E2120681CF065
:103A000012FB002D03D0290020681CF0FDFA0449A8
:103A100020681CF0F9FA70BDB090002019F802106F
:103A2000471B031070B50D000400FFF76FFC002D5D
:103A300017D10122164B174D1A702B686276002B96
:103A400001D1002070BD20001349FFF7C9FF1349C1
:103A500028681CF0D9FA124B20001978FFF70AFCED
:103A6000EFE7280027F040FB63698342E9D3002891
:103A700003D15A425341D8B2E4E71B1AE068290047
:103A8000C01822F0E3F943425841C0B2DAE7C04619
:103A900063830120B090002064F502102EF502101F
:103AA00068090020F8B504000D001600FFF72EFC91
:103AB00063696A1C00D178E09D422BD901223C4BFE
:103AC0003C4F1A703B686276002B21D020003A49A7
:103AD000FFF786FF394938681CF096FA0A22290058
:103AE00038681CF046FB364938681CF08DFA200017
:103AF000FFF7CEFC334938681CF086FA61690A2268
:103B000038681CF036FB304B20001978FFF7B2FB09
:103B100065692B005B1BB34234D20122244B254F35
:103B20001A703B686276002B2AD020002249FFF7EA
:103B300057FF264938681CF067FA0A2231003868B6
:103B40001CF017FB1E4938681CF05EFA2000FFF7D6
:103B50009FFC1C4938681CF057FA0A2261693868D2
:103B60001CF007FB1A4938681CF04EFA29000A229B
:103B700038681CF0FEFA144B20001978FFF77AFB26
:103B80006669761B002E0FD06269E0680132521B15
:103B9000A9194118921B401928F0DEF90021636928
:103BA000E2689B1B6361D154F8BD1D00B2E7C046BB
:103BB00063830120B09000209EF50210FAF40210F9
:103BC00060F50210A5F4021068090020A5F50210A6
:103BD000ADF5021070B504000D004B1C2ED0FFF7A0
:103BE00095FB63699D422AD901221A4B1A4E1A701D
:103BF00033686276002B21D020001849FFF7F0FED1
:103C0000174930681CF000FA0A22290030681CF0BD
:103C1000B0FA144930681CF0F7F92000FFF738FCBF
:103C2000114930681CF0F0F961690A2230681CF013
:103C3000A0FA0E4B20001978FFF71CFB70BD200086
:103C4000FFF764FB626929002000521BFFF72AFF7F
:103C5000F4E7C04663830120B09000209EF5021077
:103C6000FAF4021060F50210A5F4021068090020B1
:103C7000F7B51E0008AB170004CB3D4C1B780500C0
:103C8000019323680092002B31D0FFF7A9FE394938
:103C900020681CF0B9F90A22390020681CF069FA82
:103CA0002B7E002B0CD0344920681CF0ADF9791C18
:103CB0000A2220681CF05DFA304920681CF0A4F943
:103CC0000A9B002B0CD02E4920681CF09DF90A9904
:103CD0000A2220681CF04DFA2A4920681CF094F949
:103CE000294F3978002903D12800FFF7C3FAF7BD1F
:103CF0001F4C20681CF0A4F9244920681CF084F9AA
:103D0000002E05D1009B002B02D1019B002B21D05E
:103D10001F4920681CF078F9002E0CD0272120685C
:103D20001CF081F9310020681CF079F92721206806
:103D30001CF079F90EE0009B002B0DD0154920688E
:103D40001CF062F9009920681CF05EF912492068A5
:103D50001CF065F93978C7E7019B002BFAD02721C1
:103D600020681CF060F9019920681CF05CF9DDE71F
:103D7000B0900020E3F30210B7F50210C3F5021073
:103D8000C6F50210D6F5021068090020CD05031013
:103D9000EBF502101DF5021021F5021070B50D4C67
:103DA000060020680D00002813D00B491CF02CF9E8
:103DB0003000FFF76DFB2E2120681CF034F9002D38
:103DC00003D0290020681CF01FF9044920681CF06A
:103DD0001BF970BDB090002022F60210471B0310A3
:103DE000F7B506001700080001930C00FFF78EFAE4
:103DF0003000FFF78BFA019B75693B432B4304D1DD
:103E0000E268636113702000FEBD7B1C00D12F00AF
:103E1000019B013300D0019DAF420CD90123414ADF
:103E2000737613706376404B01931B68002B2DD182
:103E30003B002F001D007369AB4221D20123394A98
:103E4000394D7376137063762B68002B13D03000D6
:103E50003649FFF7A3FF364928681CF0D5F8300033
:103E6000FFF716FB334928681CF0CEF8324B3000C0
:103E70001978FFF7FFF97569AF4200D92F002B00C1
:103E80009F4201D0AF4218D10023B9E73000274943
:103E9000FFF784FF019B264918681CF0B5F8300035
:103EA000FFF7F6FA019B254918681CF0ADF8224B84
:103EB00030001978FFF7DEF9BAE72000FFF726FA9D
:103EC0002369ED1B9D4222D90123164A164F7376B2
:103ED000137063763B68002BD6D030001349FFF790
:103EE0007FFD174938681CF08FF82000FFF7D0FAE3
:103EF000144938681CF088F829000A2238681CF038
:103F000038F90D4B20001978FFF7B4F9BCE7F168D8
:103F10002A00E068C91928F01FF80022E3686561EB
:103F20005A5570E763830120B09000202BF60210F1
:103F300096F7021049F602106809002035F60210C3
:103F40005DF60210E3F30210F0B587B01F000CAB72
:103F50001B780C0000930DAB1B78160003930EAB7F
:103F60001B7805000293FFF7D1F90022E36800995E
:103F700062611A7005AB19705A70974200D11F0028
:103F8000731C2FD06B690093B3422BD02ED2012328
:103F90004B4A6B7663764B4C13702368002B21D011
:103FA00028004949FFF71CFD484920681CF02CF8FF
:103FB0000A22310020681CF0DCF8454920681CF01A
:103FC00023F82800FFF764FA424920681CF01CF827
:103FD00069690A2220681CF0CCF83F4B2800197848
:103FE000FFF748F90120404207B0F0BDEB68390007
:103FF00001939819029B002B54D024F027FB039BBC
:10400000002B04D0002802D00120002EECD0009B11
:104010008619B342E6D0019B39009819029B002B08
:1040200043D024F0EFFA0090009B009A9B19019373
:10403000236993423CD20123214A224F6B761370AD
:1040400063763B68002B27D028001F49FFF7C8FC88
:10405000224938681BF0D8FF2000FFF719FA2049E1
:1040600038681BF0D1FF0A22009938681CF081F8EB
:104070001C4938681BF0C8FF3868E9680368009A73
:104080005B6889199847272138681BF0CCFF124BD1
:1040900020001978FFF7EEF86B69019A9342A1D9D5
:1040A0001000A1E724F0AEFAA9E724F0CFFABAE7AE
:1040B000320021002800019BFFF792FEECE7C0468A
:1040C00063830120B090002070F6021054F50210B6
:1040D00060F50210A5F402106809002077F60210BE
:1040E000E3F302108AF60210F0B585B004000AA8C6
:1040F00005780BA806780020CF68486138708342A5
:1041000019D10123184A194D637613704B762B6829
:1041100083420CD016492000FFF762FC154928683D
:104120001BF072FF144B20001978FFF7A3F8012051
:10413000404205B0F0BD1F78002F0ED101230A4A7E
:104140000A4D637613704B762B68002BEFD008492D
:104150002000FFF745FC0949E1E7009002962000A6
:104160000195FFF7F1FEE4E763830120B0900020A2
:1041700070F60210B4F6021068090020DEF6021094
:10418000F0B585B01D000AAB1E780BAB1F7800237D
:104190000C000392CA684B61029013702800FFF76D
:1041A000B5F8019700962100EB68039A0298FFF793
:1041B0009BFF05B0F0BD000070B50C4C0D002068F1
:1041C000002812D00A4B1B78002B0ED01BF038FFB2
:1041D000084920681BF018FF074920681BF014FFEE
:1041E0000A22290020681BF0C4FF70BDB090002097
:1041F00068090020CD05031005F70210F8B5160078
:1042000004000F00FFF782F8731C43D06369B342C8
:1042100040D042D20122334B334D1A702B68627664
:10422000002B37D020003149FFF7DAFB30492868EE
:104230001BF0EAFE0A22310028681BF09AFF2D4984
:1042400028681BF0E1FE2000FFF722F92A492868C0
:104250001BF0DAFE0A22616928681BF08AFF274EEC
:104260003378002B12D028681BF0EAFE2449286816
:104270001BF0CAFE234928681BF0C6FE39002868D7
:104280001BF0D1FE272128681BF0CDFE20003178DD
:10429000FEF7F0FF01204042F8BD002F18D10122A7
:1042A000104B114D1A702B686276002B10D0200035
:1042B0000E49FFF795FB144928681BF0A5FE310055
:1042C0002000FFF779FF0D4B20001978FEF7D2FF91
:1042D000E4683900A01921F017FE0028DAD0001B8D
:1042E000DAE7C04663830120B090002014F7021083
:1042F00054F50210A0F40210A5F402106809002081
:10430000CD05031002F502101CF70210F8B50F00DE
:1043100004001500FEF7FAFF002F1BD10122444BC9
:10432000444E1A7033686276002B10D02000424948
:10433000FFF756FB414930681BF066FE290020005C
:10434000FFF73AFF3E4B19782000FEF793FF01205C
:104350004042F8BD380026F0C7FE002818D10122DF
:10436000334B344E1A7033686276002B10D0200025
:104370003149FFF735FB334930681BF045FE290012
:104380002000FFF719FF2E4B20001978FEF772FF6F
:104390006B1CDCD06369AB42D9D03DD20122244BE7
:1043A000244E1A7033686276002BD0D02000224948
:1043B000FFF716FB244930681BF026FE0A2229006D
:1043C00030681BF0D6FE214930681BF01DFE20002E
:1043D000FFF75EF81E4930681BF016FE0A2261697D
:1043E00030681BF0C6FE164D2B78002B12D03068BB
:1043F0001BF026FE174930681BF006FE1649306890
:104400001BF002FE390030681BF009FE27213068DE
:104410001BF009FE297897E7002B98D0E468390053
:10442000601923F0A1FB002800D190E7001B90E762
:1044300063830120B090002014F702102EF50210C3
:10444000680900202FF7021054F5021060F50210E1
:10445000A5F40210CD05031002F50210F7B50D000A
:1044600006001400FEF752FF002D1CD10122474B1D
:10447000474D1A702B687276002B10D045493000DA
:10448000FFF7AEFA444928681BF0BEFD210030005A
:10449000FFF792FE414B19783000FEF7EBFE012644
:1044A00076423000FEBD280026F01EFE00280DD109
:1044B0000122364B364D1A702B687276002BEED0E7
:1044C00034493000FFF78CFA3549DCE77369002B7B
:1044D000E5D0621C41D0A3423DD201222B4B2C4F90
:1044E0001A703B687276002BD9D030002949FFF74B
:1044F00077FA2C4938681BF087FD0A2221003868BA
:104500001BF037FE284938681BF07EFD3000FEF7AF
:10451000BFFF264938681BF077FD0A2271693868A9
:104520001BF027FE1D4C2378002B12D038681BF09F
:1045300087FD1F4938681BF067FD1E4938681BF06E
:1045400063FD290038681BF06AFD272138681BF0DD
:104550006AFD2178A0E7A34200D15C1E83429ED36E
:10456000F768012638003B1976420193019B984277
:1045700097D8290023F0F8FA002800D191E7C31B4F
:10458000A34200D933001E000130EFE7638301200E
:10459000B09000204FF702102EF50210680900209D
:1045A0002FF7021054F5021060F50210A5F4021066
:1045B000CD05031002F50210F0B58BB00400049194
:1045C0000592FEF7A3FE049B002B16D101227A4B25
:1045D0007A4D1A702B686276002B0CD07849200037
:1045E000FFF7FEF9774928681BF00EFD764B200097
:1045F0001978FEF73FFE0BB0F0BD059B002B0DD1E7
:1046000001226D4B6D4D1A702B686276002BF2D033
:104610006B492000FFF7E4F96C49E4E76769002F74
:10462000E9D0E568059B9D420DD10122624B634DA7
:104630001A702B686276002BDDD061492000FFF7ED
:10464000CFF96349CFE7049826F04EFD0790002884
:1046500011D10122584B594D1A702B686276002BEC
:10466000C9D020005649FFF7BBF95A4928681BF00A
:10467000CBFC5949B7E7059826F036FD079A069016
:10468000831A089390420CD0089B3E00002B3ADA24
:104690002F0024E02800069A059927F05DFC069B70
:1046A000ED182800049923F05FFA051EF2D1A2E765
:1046B000099B29005E1B32003800BF1927F04CFC13
:1046C0003800069A059927F047FC069B089AFF18C0
:1046D000079B099D9C46636965449B18636128009C
:1046E000049923F041FA09900028E1D1280026F02E
:1046F000FBFC2900421C380027F02EFC7BE7079BBF
:10470000C518089BF6182800049923F02DFA0028F4
:10471000F5D123699E4227D90122274B274F1A70D2
:104720003B686276002B00D165E7049B0290019004
:104730000090320020002249FFF79AFA224B1B78A2
:10474000002B00D157E7254938681BF05DFC244950
:1047500038681BF059FC059938681BF060FC27216C
:1047600038681BF08DFC46E77A1E04992000FFF79D
:1047700075FE62690500E168824216D9079B5B19E4
:10478000C918D21A089BC81827F0E6FBE068089BF6
:104790006769069A05994019DF1927F0DDFB0022A9
:1047A000E3686761DA55954204D10022E3686661E7
:1047B0009A5520E76A1ED8E763830120B090002055
:1047C0006DF502105BF70210680900206DF702100A
:1047D00082F70210A2F70210A9F70210CD0503100C
:1047E000B4F7021010B50249FFF7FAF810BDC04641
:1047F000FBF5021070B5084D04002868002809D0A8
:1048000006491BF001FC2000FEF742FE044928681F
:104810001BF0FAFB70BDC046B090002019F80210E2
:10482000DB070310F0B5150087B004001E000591EA
:104830002F00FEF76BFD002E01D16769EF19059B74
:10484000002B21D101224B4B4B4D1A702B68627605
:10485000002B0DD02000002E13D0FFF7CBFF4749CF
:1048600028681BF0D1FB464B19782000FEF702FDAB
:10487000002E03D00023E26863611370200007B0AC
:10488000F0BDFFF7AFFFEAE7002D05D1002EF5D010
:10489000E36865611D70F1E72A0020000599FEF7C5
:1048A000DBFCA84235D20122324B334F1A703B68F1
:1048B0006276002BDCD02000002E27D0FFF79AFF75
:1048C000304938681BF0A0FB29000A2238681BF029
:1048D00050FC2D4938681BF097FB294D2B78002B95
:1048E00012D038681BF0ACFB284938681BF08CFBF1
:1048F000274938681BF088FB059938681BF08FFB47
:10490000272138681BF08FFB2978AEE7FFF76AFF95
:10491000D6E723699F420FD90122164B62761A709F
:10492000002E17D13A0020001A49059B02950196E6
:104930000096FFF79DF9A1E7002E15D16369E068A5
:104940002A00C018059927F007FB0022E368676179
:10495000DA5593E7002539002B002000059A0195D0
:104960000095FEF7D3FF93E70023E26863611370BD
:10497000E4E7C04663830120B09000202EF50210CA
:1049800068090020C7F70210D0F70210CD05031008
:1049900002F50210FBF5021010B50023FFF742FFED
:1049A00010BD0000F0B587B0150004000591FEF7BA
:1049B000ADFC002D4DD02A0020000599FEF74CFCDF
:1049C000A84249D20122324B324E1A7033686276C5
:1049D000002B3ED020003049FFF702F82F49306805
:1049E0001BF012FB0A22290030681BF0C2FB2C4985
:1049F00030681BF009FB2B4B1B78002B24D0306850
:104A00001BF01EFB284930681BF0FEFA274930686E
:104A10001BF0FAFA264930681BF0F6FA0027059BCE
:104A20000A22D95D30681BF0A0FB6B1E2021306884
:104A3000BB4200D90C3101371BF0F5FABD42EED173
:104A40001C4930681BF0E0FA164B20001978FEF77D
:104A500011FC002007B0F0BD66692369AA199A42CB
:104A60000DD901210A4B61761970002320000193B2
:104A700000930949059B0295FFF7FAF8E9E72A0038
:104A800020000599FFF788FF6069801BE2E7C046B8
:104A900063830120B0900020E5F70210C7F70210F1
:104AA000EBF7021068090020CD050310EBF50210AA
:104AB00003F80210CC09031008B4024B9C460438DA
:104AC00008BC6047A5490010F0B585B00F00040090
:104AD0001500FEF71BFC002F21D10122214B224E95
:104AE0001A7033686276002B0DD02000002D13D091
:104AF000FFF780FE1D4930681BF086FA1C4B200032
:104B00001978FEF7B7FB002D03D00023E26863613C
:104B10001370200005B0F0BDFFF764FEEAE7002D3A
:104B200011D02669002E0ED101210E4B617619702D
:104B300032003300200001960097FEF7E7FEE3689D
:104B400066611E70E5E7002303AE300073703770B6
:104B500026F0CAFA2B00020031002000FFF762FEA7
:104B60000400D6E763830120B090002007F802100C
:104B70006809002010B50022FFF7A6FF10BD000055
:104B80007FB50E000400FEF7C1FB002E17D10122F5
:104B9000174B184D1A702B686276002B0CD0200032
:104BA0001549FEF71DFF154928681BF02DFA144B17
:104BB00020001978FEF75EFB002004B070BD62692A
:104BC0002369013201259A420BD9094B65761D7084
:104BD000002320000849029301930093FFF748F84F
:104BE000EAE731002000FFF7C5FF2800E5E7C046EF
:104BF00063830120B0900020E5F7021010F8021046
:104C00006809002008B4024B9C46043808BC604781
:104C1000814B0010F7B504000D00FEF777FB002371
:104C20000126A36201932B6828001B69984700287E
:104C300027D0626923699A4223D22B6828005B69D6
:104C40009847A36A0133A362002805D0C1B22000AF
:104C5000FFF790FF0196E6E70B4F0C4B38681E708C
:104C600066760028DFD01BF0EBF9094938681BF0A5
:104C7000CBF92000FEF70CFC064938681BF0E8F978
:104C8000D1E70198FEBDC046B090002063830120AB
:104C900016F8021020F80210F7B51E0017000400E5
:104CA0000D00FEF733FB002201AB1E705A709742D5
:104CB00000D11F00A2622B6828001B6998470028BA
:104CC00032D020006669FEF721FB23699E422BD279
:104CD0002B6828005B699847A36A06000133A3622A
:104CE00000280BD0F1B22000FFF744FF310038005C
:104CF00021F00AF90028DED001201AE001220D4E31
:104D00000D4B30681A7062760028D4D01BF098F9E9
:104D10000A4930681BF078F92000FEF7B9FB084912
:104D200030681BF095F9C6E72000FEF725FB01234C
:104D30001840FEBDB09000206383012016F80210D9
:104D400020F8021070B513000400002A17D10122C8
:104D50000D4B0E4D1A702B684276002B0BD00C4970
:104D6000FEF73EFE0B4928681BF04EF90A4B200067
:104D70001978FEF77FFA60690130C0B270BD002279
:104D8000FFF78AFFFAE7C04663830120B090002056
:104D90003BF8021097F602106809002070B5040075
:104DA000002A15D1144B154D01321A702B6842762A
:104DB000002B0BD01249FEF713FE124928681BF096
:104DC00023F9114B20001978FEF754FA002070BD2A
:104DD0001378002B0CD10122074B084D1A702B6859
:104DE0004276002BF2D00649FEF7FAFD0749E5E7C7
:104DF0000023FFF751FFEAE763830120B090002012
:104E00003BF80210B4F6021068090020DEF602102A
:104E100070B505000E0014001000FEF777FA31009F
:104E20002800E268FFF7BAFF70BD0000012270B5EC
:104E3000104B114E1A70336804000D004276002B9F
:104E40000CD0002912D0FFF7D5FC0C4930681BF0BC
:104E5000DBF80B4B20001978FEF70CFA002D03D07D
:104E60000023E26863611370200070BDFFF7BAFC95
:104E7000EBE7C04663830120B09000202EF50210BE
:104E80006809002070B50D0004001600FEF73EFA18
:104E9000002D04D131002000FFF7C8FF70BD2800AD
:104EA00026F022F93300020029002000FFF7BAFCA7
:104EB000F4E710B50022FFF7E5FF10BD10B5024979
:104EC000FEF78EFD10BDC04645F80210F0B585B066
:104ED0000F0004001500FEF719FA002F16D1012269
:104EE000394B3A4D1A702B686276002B0BD020009C
:104EF000FFF7E4FF364928681BF086F8354B197830
:104F00002000FEF7B7F9200005B0F0BD002DFAD063
:104F10002A0039002000FEF79FF9A84230D2012272
:104F2000294B2A4E1A7033686276002BEBD0200092
:104F3000FFF7C4FF284930681BF066F829000A22F1
:104F400030681BF016F9254930681BF05DF8214DDB
:104F50002B78002B12D030681BF072F82049306893
:104F60001BF052F81F4930681BF04EF839003068CA
:104F70001BF055F8272130681BF055F82978BFE75A
:104F80006269236956199E420ED901220E4B627640
:104F90001A70002332000193009320003B00124955
:104FA0000295FEF765FEAEE7E168481926F0D4FFEA
:104FB000E068B84203D02A00390026F0CDFF002275
:104FC000E36866619A559EE763830120B0900020F4
:104FD0002EF5021068090020C7F70210D0F7021062
:104FE000CD05031002F5021045F8021070B50D0052
:104FF0000400FEF78BF9002D15D101220F4B104D47
:105000001A702B686276002B0BD02000FFF756FF3A
:105010000C4928681AF0F8FF0B4B20001978FEF7AE
:1050200029F9200070BD280026F05EF82900020052
:105030002000FFF74BFF0400F3E7C0466383012025
:10504000B09000202EF50210680900200022044BC9
:1050500004495A601960044B5A60044A1A60704748
:10506000A0900020DC280310A8900020F428031052
:105070000023094910B504008360C36003614361E4
:105080008361C3610362436281622C3000F025F8C2
:105090000123237110BDC04688130000074B70B573
:1050A000040083622C300D0000F012F80023200071
:1050B00025602371FFF7DCFF200070BD881300001E
:1050C00010B500210148FFF7E9FF10BD64900020F2
:1050D0000023036043600381704710B50160040042
:1050E0001BF089FA01236060238110BD704770476F
:1050F00070B505000C008E18B44200D170BD2B684D
:10510000217828009B68984720700134F4E710B597
:10511000837D0400002B04D00023837540681DF0BC
:1051200005FD0521207C1CF0E7F8237D002B03D032
:105130000521E07C1CF0E0F8A07C05211CF0DCF8E7
:105140000521607C1CF0D8F8002323726372A372DF
:10515000E3722373637310BDF8B5160001220400D7
:1051600017008B680D1D002B08D1002A1BD0CA68C0
:1051700095420ED1236065602000F8BD1A69B242E5
:1051800004DD3A0098681D000300ECE70022D868AF
:10519000F9E7280020F08CF902690023B242E9DB2C
:1051A00020606360E8E72800F6E7F0B50E00010034
:1051B00085B002AD0400320028003031FFF7CCFF8B
:1051C000039F002F1CD02200029B34320125019244
:1051D000002B06D1974204D03A69964200DB1D1C91
:1051E000EDB2182020F01EF9002301004361066192
:1051F000019B3A00280020F077F9636C0133636467
:1052000005B0F0BD70B50400002C00D170BDE068A1
:10521000FFF7F8FFA5682000182120F0FBF82C000C
:10522000F2E7000010B50400034B0360806BFFF74A
:10523000E9FF200010BDC0463C29031010B5040052
:10524000FFF7F0FF2000482120F0E4F8200010BD17
:10525000F7B50700343705003E00836B01931C1E31
:1052600001D134000EE02269914203DDE36834008D
:105270002600F4E7A3689142FADBE268002B0FD125
:10528000002A19D1EB6BA3422DD1B7422BD1019843
:10529000FFF7B8FF0023EF63AB632F646B64F7BDC8
:1052A0001869814204DC986884461C006346E5E77F
:1052B000DB689C462300F8E71369994202DA16007E
:1052C0009268DDE7D268DBE7200020F0D9F83900EA
:1052D0000190200020F0CAF9182120F09BF86B6C97
:1052E000019C013B6B64B442EED1D8E7030033224A
:1052F0001B010009184343B29B00800893431040F0
:10530000184343B2223240085B00104093431843D5
:10531000C0B2704770B50500C0B2FFF7E7FF0400E8
:10532000280AFFF7E3FF2402204380B270BD7FB557
:105330006B46D9809D1D837D0400181E1BD0637BA6
:1053400088B2012B01D0FFF7E5FF0F2328806068AA
:105350000E2602686E449343802252018218136025
:1053600029000123320029F023FE637B3088012BC2
:1053700001D0FFF7CFFF04B070BDF8B51400827DF7
:1053800006000F00002A13D007224068E5180168C4
:105390004A400F210A408021490141180A60727B6E
:1053A000012A1FD1002C04D11A00390029F0E0FD98
:1053B000F8BD2200002F03D1FF2129F079FDF7E786
:1053C000390029F0EDFDF3E7336830009B68397848
:1053D00098472070737B012B01D0FFF787FF207067
:1053E00001370134A542EFD1E2E77FB56B46D971B1
:1053F000DD1D837D0400181E1DD0637BC8B2012B08
:1054000001D0FFF773FF0723287060680F2602683A
:105410006E4453400F2213408022520182181360C1
:1054200029000123320029F0BBFD637B3078012B7A
:1054300001D0FFF75BFF04B070BD70B505001BF035
:1054400033FD3435AC68A54202D11BF00BFD70BDB5
:105450006169206901221BF0C3FF20001FF0F8FFE3
:105460000400F0E7F0B589B005001BF01DFDD02366
:105470001B061B685A4253412F225B429343534AF7
:10548000944663440493EB6801932B1D0093009BA7
:10549000019A934203D11BF0E5FC09B0F0BD07224D
:1054A000019B1C69E31713401B19049ADB109B0036
:1054B000D718474B3A68234004D50821013B49429D
:1054C0000B4301339B0005931300059A009ED340C4
:1054D0000F2213400393AB68002B1FD1009BB342F4
:1054E00002D033699C426EDA18201FF09BFF039AAA
:1054F000009B029004614261B34219D16B69002B99
:1055000003D02A6913699C423ADC06AE22002900C6
:105510003000FFF721FE069B079A2CE01A6994429F
:1055200003DC9A681E001300D6E7DA683300F9E757
:1055300033699C420FDAEA6896420AD030001FF0C5
:10554000B7FF036902009C42DFDDC368002B17D060
:105550003200012018E09C4230DD2A6996420FD0CB
:1055600030001FF075FF026903009442CDDAF26843
:10557000002A1BD00200002A20D00120002B03D1DA
:10558000009B0120934212D1009B02991FF0ACFFB7
:105590006B6901336B610599039B3A688B405340FB
:1055A00001983B601FF054FF019070E732001369CF
:1055B00001209C4200DB0020C0B2E5E718210298E0
:1055C0001FF028FFE7E7039B7361E4E730410140E8
:1055D00007000080F0B585B0029103920D00817D37
:1055E00002AE04008368002941D09D4209D1B288EF
:1055F00083899A420CD120003030FFF733FF05B089
:10560000F0BD40681DF092FA290060681DF0FAFABA
:105610002000022731000622083002951FF0C2FC4C
:105620006168144A237B8A18486817609A1ED2B2B0
:10563000944638400125019000226046BB43013B5F
:10564000854252415F427B419201DB0113430722B5
:105650001A43CF230E6872401A4080235B01CB1897
:105660001A60054BC918019B0B60A575C3E79D42E5
:10567000CAD1CDE70430000004200000F0B505AC2D
:10568000267806AC27780C4C0500046000243435DD
:1056900004622C70C5630564477486748463446433
:1056A000416044758475047244728472C4720473D8
:1056B00044730274C374F0BD3C290310F0B50700B5
:1056C00085B00D001022684619491FF06BFC7E7DE5
:1056D0006C46002E15D1174A7B6801209B185A4250
:1056E00053410021DB002A00E41829F001FC236863
:1056F000184063681940084303D03D74012005B089
:10570000F0BD3B7CAB42F9D078680B4A0B4B0C499F
:10571000002E05D0904200D119000A481BF0B8FDB8
:10572000904200D119002A0007481BF0B1FDC04685
:10573000782903100000FCBF00000440DA120310B7
:10574000210B03104CF802107CF80210F0B5070092
:1057500085B00D001022684619491FF023FC7E7D9C
:105760006C46002E15D1174A7B6801209B185A42BF
:1057700053410021DB002A00E41829F0B9FB23681B
:10578000184063681940084303D0FD74012005B038
:10579000F0BDFB7CAB42F9D078680B4A0B4B0C494F
:1057A000002E05D0904200D119000A481BF070FD70
:1057B000904200D119002A0007481BF069FDC0463D
:1057C000882903100000FCBF00000440DA12031017
:1057D000210B0310B0F80210E0F80210F0B507003A
:1057E00085B00D001022684619491FF0DBFB7E7D55
:1057F0006C46002E15D1174A7B6801209B185A422F
:1058000053410021DB002A00E41829F071FB2368D2
:10581000184063681940084303D0BD74012005B0E7
:10582000F0BDBB7CAB42F9D078680B4A0B4B0C49FE
:10583000002E05D0904200D119000A481BF028FD27
:10584000904200D119002A0007481BF021FDC046F4
:10585000982903100000FCBF00000440DA12031076
:10586000210B031014F9021045F90210F0B50700DE
:1058700085B00D001022684619491FF093FB7E7D0C
:105880006C46002E15D1174A7B6801209B185A429E
:1058900053410021DB002A00E41829F029FB23688A
:1058A000184063681940084303D07D74012005B097
:1058B000F0BD7B7CAB42F9D078680B4A0B4B0C49AE
:1058C000002E05D0904200D119000A481BF0E0FCE0
:1058D000904200D119002A0007481BF0D9FCC046AD
:1058E000A82903100000FCBF00000440DA120310D6
:1058F000210B03107AF90210AAF9021070B5040006
:105900000D00007C01211BF0F7FC2575002D03D054
:105910000121E07C1BF0F0FCA07C01211BF0ECFCE1
:10592000607C01211BF0E8FC23682000A168E2688C
:105930001B6A9847236820005B6A984770BD10B5C2
:105940000021FFF7DBFF10BD132307B50193013BD7
:105950001022084900930848013BFFF78FFE0F23F0
:105960000193013B00930C2204480549013BFFF7DA
:1059700085FE07BD00C00340D8890020208A002092
:1059800000000440002270B5022406200321264BAB
:1059900007251A705A70254B08261C705C70244B22
:1059A000244A19705870012310705370224A1570E0
:1059B0005370224A16705570214A2D191570547073
:1059C000204AED18157054701F4A0A341470537031
:1059D0001E4AE418147053701D4AAD1915705370A7
:1059E0001C4A0735157053701B4A073515705370E4
:1059F0001A4AED1815705370194A05351570537011
:105A0000184A113515705370174A10705370174AA1
:105A1000233014705370164A51701070154A30318B
:105A20001170537070BDC0463A8301203C83012041
:105A30003E830120408301204283012044830120D2
:105A4000468301204A8301204C8301204E8301209C
:105A5000508301205283012054830120568301206A
:105A6000588301205A830120488301205C83012050
:105A70005E8301206083012010B5034B01001800F4
:105A800000F08AFA10BDC046188B002070B50024C3
:105A9000054B1D78AC4200D170BD2000013400F0F0
:105AA000F7FBE4B2F6E7C0466283012013B56B460C
:105AB0000268D9710733546819000122A04716BD46
:105AC00010B5407D0024FF2805D000F0AFFB041E78
:105AD00001D11AF08AFD200010BD13B5407DFF28CA
:105AE00002D10120404216BD6B46DC1D210000F0B2
:105AF000C3FB0028F5D02078F5E713B5407DFF28DB
:105B000009D06B46DC1D0122210000F09BFB002820
:105B100001D0207816BD01204042FBE710B5407D42
:105B2000FF2801D000F0B4FB10BD10B5437D00206C
:105B3000FF2B02D0180000F007FC10BDF8B5437D24
:105B400006000F0015000020FF2B10D1F8BD3F18F4
:105B50001AF04BFD707D00F043FB00280AD02200B4
:105B60003900707D00F0D0FB241A02D0EFE7141E3C
:105B7000F0D10024281BE9E7F0B597B00600171E06
:105B800003931FD08021494208004C4B5D7FAA1C23
:105B90005A779A7F1043C0B20190901C0132114392
:105BA000CAB20292DA7F987700920132DA7705ACB6
:105BB0004222002120001FF0EFF9002F07D14220E0
:105BC00017B0F0BD1500009202920192EFE7039B1F
:105BD0000020412BF4D93A48317DA0803948217406
:105BE000208139480521A081DE38FF38A07437486C
:105BF000A5700A90012020763548A5720C90354892
:105C00006B1C208404A80730C5770B258C46617473
:105C100004A96D1801990426E9772B2504A94919CF
:105C2000283D0D7004A929354919243D0D70912591
:105C30002D016585302504A949190E70013504A987
:105C4000DBB206A86D18244AA376C3772B700B002D
:105C50003321228002225B1834251A700A2304A9FA
:105C600049190B7004A930331C485B180099E27085
:105C7000A273A084A086E67619703B2104AB5B1862
:105C80001A70402304AA013152181370033104AA78
:105C90005218393B1370402204AB9B1862461A70AD
:105CA000412304AA9B18029A21001A700C4B42222D
:105CB0003800E3871FF076F981E7C046178C002093
:105CC0000202000009040000010200002001052476
:105CD0002402060524060000080B0000070500004A
:105CE0000240000008B4024B9C46103808BC6047D4
:105CF000795B0010002343600375054BFA220360B3
:105D0000044B92000361FF23826043757047C046D5
:105D1000C0290310E829031010B5437DFF2B0FD1D4
:105D2000084A1378012B0BD8437510300400591C16
:105D30001170054900F0BEF92100044800F00CF98B
:105D400010BDC04662830120DEF90210188B0020CE
:105D500007B500290BD1002809D1694600F058FA8F
:105D60009623009ADB009A4201D100F0EFF907BDBB
:105D700010B50248FFF7BEFF10BDC046688A00207C
:105D8000F7B584460020020063469D189B5C002BFB
:105D90006ED01C004034E4B2012C0FD9F42B0DD886
:105DA0005CB2002C0CDB01246E1C2D190195019DA9
:105DB000AE421DD1012C27D17F2B2DD90132E3E733
:105DC0001F241E00A643C02E02D123401D3CEBE73A
:105DD0000F241E00A643E02E02D123400C3CE3E733
:105DE00007241E00A643F02EE8D12340033CDBE746
:105DF0003F27357801360095BD43802DDED1009DCB
:105E00009B013D402B43D2E7022C26D11D00F026FA
:105E1000803DF600B542D1D2202829D01219440085
:105E200063520130B0E7F826124D36025D19B542D3
:105E3000C4D28026104D36015D19B542ECD2BDE7C3
:105E40000E4E9D0A4400AD190D539B050C4D9B0D44
:105E50000C195B190230638096E7032CE3D0094CE0
:105E60001B1980246403A342A8D204321E28E7DD54
:105E7000FEBDC04600F8FFFF0028FFFF00D8FFFF6F
:105E800000DCFFFF0000FFFF018142817047FC3012
:105E900081627047FC30C1627047FC30016370471B
:105EA000A82210B552000300805C0B2808D80029F6
:105EB00008D0441C9C54020048329200D15010BDBE
:105EC0000020FCE70800FAE770B5040088B01D4E1A
:105ED00003AD3100122228001FF064F8230007CD23
:105EE00007C32A6831001A60AA8825009A801835ED
:105EF0000922684612311FF055F869460922280028
:105F00001FF050F8104B6561E435EB6180222300EF
:105F10002000FE335200DA832D300133FF3ADA7766
:105F200000212332FF301FF037F8084B04226B6248
:105F3000074BAB62074BEB62A8235B00E25408B04F
:105F400070BDC046EC2903100900000109040000DF
:105F5000EDF90210FFF90210F8B504002500080061
:105F60002600FE35698BAB8B626907685B1AFF36CA
:105F700052183F68717F9BB2B84700280AD06A8BDD
:105F80008318012062699BB26B8393701B0AD370E4
:105F9000737F1371F8BD000070B504000D00012679
:105FA000FFF792FFE121064BA671A3804902054845
:105FB000FFF7B2FE280000F0A3F8300070BDC04625
:105FC000EF020000688A0020F0B5FC30056B8BB052
:105FD0008C1C002D25D102A800F0BDF80090009A7D
:105FE000EBB2934218D2114B06AF190010223800C1
:105FF00001931EF0D7FF02AB5E5D0F233340FB5CC5
:10600000102263803800019936111EF0CBFFBB5D72
:10601000013523800434E2E7009B5800C0B20BB086
:10602000F0BD21002800FFF7ABFEF7E70AFA0210E7
:1060300010B50400002911D0032920D0A8235B004B
:10604000C35C00208B4219D948318B0021005531A7
:106050001859FF31FFF794FEC0B206E00300FC338D
:106060005A6AAA235B00C2520120C023A922013030
:1060700040009B0003435200A352A01810BD010032
:106080005331FF31FFF7A0FFEFE7000000487047F2
:10609000188B0020014B58697047C046188B0020B0
:1060A00010B5034B0A0001001800FFF7C1FF10BD37
:1060B000188B002010B504000248FFF7F1FE207194
:1060C00010BDC046188B002010B5024B18681BF09D
:1060D00009FA10BD648F002010B5084C0021200083
:1060E00028F02EFF002807D001200021404200F0B8
:1060F00075FF200028F0E4FE10BDC046C8900020C7
:1061000037B505000D481BF001FC01246B4601A9C1
:1061100028009C8000F02AFE20001BF0E3FB084DC5
:10612000084928601BF0EEF9286821001BF0BAF935
:106130000022052004491BF005FA37BDC890002055
:10614000648F0020D9600010C9600010002110B5D4
:1061500008001CF0FDF810B51EF0B4FF082010BDBB
:1061600010B5084C0021200028F0EAFE002807D0D6
:1061700001200021404200F031FF200028F0A0FE65
